S01100005457495F534C4156452E7372656345
S11300000C9434000C9446000C9446000C94460066
S11300100C9446000C9446000C9446000C94460044
S11300200C9446000C9446000C9446000C94460034
S11300300C9446000C9446000C9446000C94460024
S11300400C9446000C9446000C9446000C94460014
S11300500C9446000C9499000C9446000C944600B1
S11300600C94AE000C94460011241FBECFEFD8E0D0
S1130070DEBFCDBF21E0A0E0B1E001C01D92A230FF
S1130080B207E1F70E947E000C94ED000C9400008E
S1130090ECE7F0E080818064808380818F778083C7
S11300A0808180628083EAE7F0E0808187608083DA
S11300B0808180688083EEE7F0E0808181608083C6
S11300C00895ECE7F0E09081907F892B8083EAE744
S11300D0F0E080818064808380917A0086FDFCCF8B
S11300E08091790090E0089597B19F7C97B9880F2B
S11300F08093BA0085E48093BC00089584B1806243
S113010084B985B18F7D85B90E94480080E30E943F
S11301107400789480E00E946100809300018091D3
S113012001018235B9F783B1806283B9109201016C
S1130130F1CF1F920F920FB60F9211248F93EF936A
S1130140FF93EAE7F0E0808180618083FF91EF9183
S11301508F910F900FBE0F901F9018951F920F92C2
S11301600FB60F9211248F93EF93FF938091B900F0
S11301708C7F803899F028F4803651F0803741F034
S11301801FC0883AA9F0883B99F08039C9F406C0A9
S1130190ECEBF0E080818068808317C08091BB0025
S11301A080930101ECEBF0E08081806880830DC0D6
S11301B0809100018093BB0085EC8093BC0005C056
S11301C0ECEBF0E0808180698083FF91EF918F9167
S11101D00F900FBE0F901F901895F894FFCF5C
S9030000FC
