S00E0000736C617665322E73726563C9
S11300000C9434000C9446000C9446000C94460066
S11300100C94F5000C9446000C9446000C94460095
S11300200C9446000C9446000C9446000C94460034
S11300300C9446000C9446000C9446000C94460024
S11300400C9446000C9446000C9446000C94460014
S11300500C9446000C9446000C9446000C94460004
S11300600C94B6000C94460011241FBECFEFD8E0C8
S1130070DEBFCDBF21E0A0E0B1E001C01D92A430FD
S1130080B207E1F70E9492000C9432010C94000034
S113009097B19F7C97B9880F8093BA0085E48093C9
S11300A0BC000895E8E6F0E0808182608083ECE69D
S11300B0F0E0808183608083089583FF04C09BB156
S11300C090629BB903C09BB19F7D9BB982FF04C022
S11300D09BB190619BB903C09BB19F7E9BB981FF8B
S11300E004C09BB198609BB903C09BB1977F9BB937
S11300F080FF04C08BB184608BB908958BB18B7F72
S11301008BB908958AB18C638AB980E00E945D003E
S113011084B1806284B987B18C7F87B988B18360E8
S113012088B9089584B1806284B985B18F7D85B919
S11301300E94820080E40E9448000E945200789449
S1130140809101019091020180930001809101014D
S1130150909102010E945D0080910301823581F734
S113016083B1806283B910920301EACF1F920F9288
S11301700FB60F9211248F93EF93FF938091B900E0
S11301808C7F803899F028F4803651F0803741F024
S11301901FC0883AA9F0883B99F08039C9F406C099
S11301A0ECEBF0E080818068808317C08091BB0015
S11301B080930301ECEBF0E08081806880830DC0C4
S11301C0809100018093BB0085EC8093BC0005C046
S11301D0ECEBF0E0808180698083FF91EF918F9157
S11301E00F900FBE0F901F9018951F920F920FB68D
S11301F00F9211248F939F9330990BC0319B09C0A8
S113020080910101909102010196909302018093E3
S113021001018091010190910201409724F0109214
S113022002011092010131990BC0309B09C08091E9
S113023001019091020101979093020180930101C1
S113024080910101909102011816190624F0109270
S11302500201109201019F918F910F900FBE0F9098
S10B02601F901895F894FFCFDC
S9030000FC
