:100000000C9434000C9446000C9446000C9446006A
:100010000C9446000C9446000C9446000C94460048
:100020000C9446000C9446000C9446000C94460038
:100030000C9446000C9446000C9446000C94460028
:100040000C9446000C9446000C9446000C94460018
:100050000C9446000C94FF000C9446000C9446004F
:100060000C9414010C94460011241FBECFEFD8E06D
:10007000DEBFCDBF21E0A0E0B1E001C01D92A23003
:10008000B207E1F70E94D5000C9453010C940000D4
:10009000ECE7F0E080818064808380818F778083CB
:1000A00080818F7D8083EAE7F0E0808187608083B4
:1000B000808180688083EEE7F0E0808181608083CA
:1000C0000895ECE7F0E09081907F892B8083EAE748
:1000D000F0E080818064808380917A0086FDFCCF8F
:1000E0008091780090917900089597B19F7C97B99D
:1000F000880F8093BA0085E48093BC00089588231C
:1001000024F49BB190649BB903C09BB19F7B9BB9C6
:1001100086FF04C09BB190629BB903C09BB19F7DD9
:100120009BB985FF04C09BB190619BB903C09BB193
:100130009F7E9BB984FF04C09BB198609BB903C0AC
:100140009BB1977F9BB983FF04C09BB194609BB91F
:1001500003C09BB19B7F9BB982FF04C098B198609C
:1001600098B903C098B1977F98B981FF04C098B13E
:10017000946098B903C098B19B7F98B980FF04C080
:1001800088B1826088B9089588B18D7F88B9089553
:1001900087B18E6087B98AB18C678AB980E00E9486
:1001A0007F0084B1806284B9089584B1806284B98B
:1001B00085B18F7D85B90E94C8000E94480080E308
:1001C0000E947500789480E00E9461008093000195
:1001D000809100010E947F002FEF81EE94E021507A
:1001E00080409040E1F700C000008091010182351D
:1001F00051F783B1806283B910920101E4CF1F925D
:100200000F920FB60F9211248F93EF93FF93EAE7AB
:10021000F0E0808180618083FF91EF918F910F905A
:100220000FBE0F901F9018951F920F920FB60F924E
:1002300011248F93EF93FF938091B9008C7F8038C6
:1002400099F028F4803651F0803741F01FC0883A89
:10025000A9F0883B99F08039C9F406C0ECEBF0E0D6
:1002600080818068808317C08091BB0080930101EA
:10027000ECEBF0E08081806880830DC0809100010C
:100280008093BB0085EC8093BC0005C0ECEBF0E0F4
:10029000808180698083FF91EF918F910F900FBED5
:0A02A0000F901F901895F894FFCFFF
:00000001FF
