S01200005457495F4D41535445522E73726563F3
S11300000C9434000C9446000C9446000C94460066
S11300100C9446000C9446000C9446000C94460044
S11300200C9446000C9446000C9446000C94460034
S11300300C9446000C9446000C9446000C94460024
S11300400C9446000C9446000C9446000C94460014
S11300500C9446000C9446000C9446000C94460004
S11300600C9446000C94460011241FBECFEFD8E038
S1130070DEBFCDBF21E0A0E0B1E001C01D92A430FD
S1130080B207E1F70E941E010C9493010C94000046
S11300900F931F93CF938B019C01C42F87B18F7C47
S11300A087B9443079F018F4413031F023C040313D
S11300B091F04034C9F01EC0E9EBF0E080818C7F00
S11300C080831EC0E9EBF0E080818D7F8083808196
S11300D08160808315C0E9EBF0E080818E7F8083AE
S11300E08081826080830CC0E9EBF0E080818360D2
S11300F0808306C0E9EBF0E080818C7F8083C1E0DF
S113010060E074E284EF90E0A90198010E9471011B
S1130110CA01B90160517109810991094C2F50E05C
S11301209A01220F331F032E000C440B550B0E941F
S113013071012093B800ECEBF0E08081846080834F
S1130140CF911F910F91089584EA8093BC00809110
S1130150BC008823E4F7089584E98093BC000895E3
S11301608093BB0084E88093BC008091BC0088230A
S1130170E4F78091B900887F883131F0883231F01A
S1130180803429F481E0089581E0089581E00895A0
S1130190882324F49BB190629BB903C09BB19F7DDB
S11301A09BB986FF04C09BB190619BB903C09BB10E
S11301B09F7E9BB985FF04C09BB198609BB903C027
S11301C09BB1977F9BB984FF04C09BB194609BB99A
S11301D003C09BB19B7F9BB983FF04C098B1986017
S11301E098B903C098B1977F98B982FF04C098B1B9
S11301F0946098B903C098B19B7F98B981FF04C0FB
S113020098B1926098B903C098B19D7F98B980FF66
S113021004C088B1816088B9089588B18E7F88B997
S1130220089587B18F6087B98AB18C638AB980E0F9
S11302300E94C80084B1806284B9089541E068EEE8
S113024073E080E090E00E9448000E94110185B1B3
S1130250806285B90E94A40080E6809302010E9416
S1130260B00080930301813019F00E94AC0005C0F6
S113027082E50E94B0000E94AC002FEF89E698E16D
S1130280215080409040E1F700C0000085B18F7D8F
S113029085B90E94A40081E6809302010E94B00007
S11302A080930301813011F00E94AC0084E88093B4
S11302B0BC008091BC008823E4F78091BB0080934C
S11302C000010E94AC00809100010E94C8002FEF41
S11302D089E698E1215080409040E1F700C0000099
S11302E0B6CFA1E21A2EAA1BBB1BFD010DC0AA1F8B
S11302F0BB1FEE1FFF1FA217B307E407F50720F08B
S1130300A21BB30BE40BF50B661F771F881F991F05
S11303101A9469F760957095809590959B01AC014E
S10D0320BD01CF010895F894FFCF4A
S9030000FC
